:100000000C9462000C948A000C948A000C948A0070
:100010000C948A000C948A000C948A000C948A0038
:100020000C948A000C948A000C948A000C948A0028
:100030000C948A000C948A000C948A000C948A0018
:100040000C9470060C948A000C9411030C945F03BA
:100050000C948A000C948A000C948A000C948A00F8
:100060000C948A000C948A000000000024002700F1
:100070002A0000000000250028002B0000000000DE
:1000800023002600290004040404040404040202DA
:100090000202020203030303030301020408102007
:1000A0004080010204081020010204081020000012
:1000B0000007000201000003040600000000000029
:1000C0000000CB0411241FBECFEFD8E0DEBFCDBFB0
:1000D00011E0A0E0B1E0E8E7FEE002C005900D927B
:1000E000AE32B107D9F711E0AEE2B1E001C01D9226
:1000F000A93EB107E1F710E0C4ECD0E004C02297BC
:10010000FE010E943607C23CD107C9F70E942105B3
:100110000C943A070C9400008091080160E070E0B4
:100120000E94CA0180910A0160E070E00E94CA0149
:1001300080910C0160E070E00E94CA0180910E0184
:1001400060E070E00E94CA0108950F931F939C0124
:100150008B0180910A01B9010E94CA0180910801B6
:1001600060E070E00E94CA0180910E01B8010E9417
:10017000CA0180910C0160E070E00E94CA011F91E9
:100180000F910895AF92BF92CF92DF92EF92FF92BC
:100190000F931F936C015B010EEB11E060912E0138
:1001A00070912F01C8014AE050E00E94090690E0DA
:1001B000E92E91E0F92EC801B7010E946D06609109
:1001C000320170913301C8014AE050E00E940906F3
:1001D000C801B7010E946D0660913401709135012C
:1001E000C8014AE050E00E940906C801B7010E9418
:1001F0006D066091300170913101C8014AE050E014
:100200000E94090682E0E82E81E0F82EC801B701BD
:100210000E946D06C801B6014AE050E00E945A06ED
:10022000C801B7010E946D06C801B5014AE050E05F
:100230000E945A06C8010E945A051F910F91FF9013
:10024000EF90DF90CF90BF90AF9008950F931F93E2
:10025000CF93DF93809112010E94A80190932F0108
:1002600080932E01809116010E94A8019093330182
:1002700080933201809118010E94A801909335016A
:1002800080933401809114010E94A8019C019093F5
:1002900031018093300140911A0150911B018091EE
:1002A0002E0190912F01489F8001499F100D589F6A
:1002B000100D1124249FE001259FD00D349FD00DF7
:1002C0001124C801BE010E94C200809110010E9449
:1002D000BD02019729F4C801BE010E94A50002C019
:1002E0000E948C00DF91CF911F910F9108958EEBAA
:1002F00091E040E855E260E070E00E949A0380914E
:10030000080161E00E942A0280910A0161E00E94D6
:100310002A0280910C0161E00E942A0280910E0164
:1003200061E00E942A028091120160E00E942A028C
:100330008091140160E00E942A028091160160E021
:100340000E942A028091180160E00E942A0208950A
:10035000982F8E3008F09E50977080911C018295E6
:10036000880F880F807C892B80937C0080917A0095
:10037000806480937A0080917A0086FDFCCF209182
:10038000780040917900942F80E030E0282B392BC1
:10039000C90108951F93CF93DF93182FEB0161E0FC
:1003A0000E942A02209709F44AC0CF3FD10509F4E0
:1003B00049C0E12FF0E0E255FF4F84918330C1F056
:1003C000843028F4813051F08230B1F50CC0863091
:1003D00019F1873049F1843079F514C084B580680B
:1003E00084BDC7BD33C084B5806284BDC8BD2EC086
:1003F00080918000806880938000D0938900C093B2
:10040000880024C080918000806280938000D09317
:100410008B00C0938A001AC08091B00080688093DE
:10042000B000C093B30012C08091B000806280938E
:10043000B000C093B4000AC0C038D1051CF4812FAD
:1004400060E002C0812F61E00E946902DF91CF91DC
:100450001F910895CF93DF93482F50E0CA0186562D
:100460009F4FFC0134914A575F4FFA0184918823D2
:1004700069F190E0880F991FFC01E859FF4FA591A1
:10048000B491FC01EE58FF4FC591D491662351F40D
:100490002FB7F8948C91932F909589238C93888112
:1004A00089230BC0623061F42FB7F8948C91932F9D
:1004B000909589238C938881832B88832FBF06C0D6
:1004C0009FB7F8948C91832B8C939FBFDF91CF9132
:1004D0000895482F50E0CA0182559F4FFC01249196
:1004E000CA0186569F4FFC0194914A575F4FFA010B
:1004F0003491332309F440C0222351F1233071F0A9
:10050000243028F42130A1F0223011F514C0263017
:10051000B1F02730C1F02430D9F404C080918000BC
:100520008F7703C0809180008F7D8093800010C002
:1005300084B58F7702C084B58F7D84BD09C080915A
:10054000B0008F7703C08091B0008F7D8093B000A2
:10055000E32FF0E0EE0FFF1FEE58FF4FA591B4918F
:100560002FB7F894662321F48C919095892302C0CB
:100570008C91892B8C932FBF0895682F70E0CB014D
:1005800082559F4FFC012491CB0186569F4FFC0161
:1005900044916A577F4FFB019491992319F420E00D
:1005A00030E03CC0222351F1233071F0243028F494
:1005B0002130A1F0223011F514C02630B1F02730DF
:1005C000C1F02430D9F404C0809180008F7703C03B
:1005D000809180008F7D8093800010C084B58F77DC
:1005E00002C084B58F7D84BD09C08091B0008F7733
:1005F00003C08091B0008F7D8093B000892F90E080
:10060000880F991F84589F4FFC01A591B4918C913C
:1006100020E030E0842311F021E030E0C9010895AA
:1006200008951F920F920FB60F9211242F933F93AC
:100630004F938F939F93EF93FF938091C00082FD20
:100640001DC04091C60020917601309177012F5F47
:100650003F4F2F7330708091780190917901281766
:10066000390771F0E0917601F0917701EA5CFE4F75
:100670004083309377012093760102C08091C600B9
:10068000FF91EF919F918F914F913F912F910F90FB
:100690000FBE0F901F901895E091CA01F091CB0109
:1006A000E05CFF4F8191919120813181821B930BFE
:1006B0008F739070892B11F00E94100308951F9280
:1006C0000F920FB60F9211242F933F938F939F9306
:1006D000EF93FF932091BA013091BB018091BC014F
:1006E0009091BD012817390731F48091C1008F7DA9
:1006F0008093C10014C0E091BC01F091BD01E658A7
:10070000FE4F20818091BC019091BD0101968F73B5
:1007100090709093BD018093BC012093C600FF911F
:10072000EF919F918F913F912F910F900FBE0F905E
:100730001F901895AF92BF92DF92EF92FF920F93A6
:100740001F93CF93DF93EC017A018B01DD244030BE
:1007500081EE580780E0680780E0780711F0DD241B
:10076000D39491E0A92EB12CEC89FD89DD2069F0AC
:10077000C50108A002C0880F991F0A94E2F7808380
:1007800060E079E08DE390E005C0108260E874E8F5
:100790008EE190E0A80197010E941207215030409D
:1007A00040405040569547953795279580E1203039
:1007B000380720F0DD2011F0DD24D6CFE889F98953
:1007C0003083EA89FB89208319A2EE89FF89408161
:1007D00021E030E0C9010C8C02C0880F991F0A94F7
:1007E000E2F7482B4083EE89FF894081C9010D8CD7
:1007F00002C0880F991F0A94E2F7482B4083EE89C4
:10080000FF894081C9010E8C02C0880F991F0A948C
:10081000E2F7482B4083EE89FF8980810F8C02C06C
:10082000220F331F0A94E2F7209528232083DF91BB
:10083000CF911F910F91FF90EF90DF90BF90AF90FD
:100840000895DC011C96ED91FC911D97E05CFF4F33
:100850002191319180819181281B390B2F73307048
:10086000C9010895DC011C96ED91FC911D97E05C97
:10087000FF4F20813181E054F040DF01AE5BBF4F7C
:100880008D919C9111972817390719F42FEF3FEF9D
:1008900007C08D919C91E80FF91F8081282F30E0CF
:1008A000C9010895DC011C96ED91FC911D97E05C57
:1008B000FF4F20813181E054F040DF01AE5BBF4F3C
:1008C0008D919C9111972817390719F42FEF3FEF5D
:1008D00010C08D919C911197E80FF91F20818D9187
:1008E0009C91119701968F73907011969C938E93A3
:1008F00030E0C9010895DC0191968C91919788238D
:1009000039F05496ED91FC915597808186FFF9CF8F
:1009100091961C920895CF93DF93EC01EE85FF85AD
:10092000E05CFF4F20813181E054F0402F5F3F4F6A
:100930002F733070DF01AE5BBF4F8D919C9111978B
:1009400028173907D1F3E05CFF4F80819181E05493
:10095000F040E80FF91F6083EE85FF85E05CFF4FF4
:1009600031832083EE89FF89208181E090E00F8C24
:1009700002C0880F991F0A94E2F7282B208381E098
:1009800089A3EC89FD8980818064808381E090E087
:10099000DF91CF9108951092C1011092C00188EEAD
:1009A00093E0A0E0B0E08093C2019093C301A093D4
:1009B000C401B093C50181E291E09093BF0180939F
:1009C000BE0186E391E09093CB018093CA018AE750
:1009D00091E09093CD018093CC0185EC90E09093D1
:1009E000CF018093CE0184EC90E09093D10180936D
:1009F000D00180EC90E09093D3018093D20181EC00
:100A000090E09093D5018093D40182EC90E0909394
:100A1000D7018093D60186EC90E09093D901809322
:100A2000D80184E08093DA0183E08093DB0187E0E2
:100A30008093DC0185E08093DD0181E08093DE011D
:100A40000895CF93DF930E94B8060E947701CCE40B
:100A5000D3E00E9426012097E1F30E944C03F9CFD6
:100A6000CF92DF92EF92FF920F931F93CF93DF937A
:100A70007C016B018A01C0E0D0E00FC0D6016D910E
:100A80006D01D701ED91FC910190F081E02DC7013E
:100A90000995C80FD91F015010400115110571F7B4
:100AA000CE01DF91CF911F910F91FF90EF90DF90DA
:100AB000CF900895EF92FF920F931F938C01DC016A
:100AC000ED91FC910190F081E02D6DE009957C01A4
:100AD000D801ED91FC910190F081E02DC8016AE010
:100AE00009959C012E0D3F1DC9011F910F91FF908B
:100AF000EF900895CF93DF93EC016115710519F420
:100B000020E030E00FC0DB010D900020E9F71197E5
:100B1000A61BB70BE881F9810280F381E02DAD01BE
:100B200009959C01C901DF91CF9108954F925F9281
:100B30007F928F929F92AF92BF92CF92DF92EF926D
:100B4000FF920F931F93DF93CF93CDB7DEB7A1979B
:100B50000FB6F894DEBF0FBECDBF2C01742ECB01B3
:100B6000223008F42AE019A231E2C32ED12CCC0E97
:100B7000DD1E822E9924AA24BB24672D752FA50182
:100B800094010E94120779018A01C801B701A501E9
:100B900094010E94F306472D461B0894C108D10812
:100BA0004A3014F4405D01C0495CF6014083E11411
:100BB000F1040105110521F07E2C5F2DC801DDCF68
:100BC000C201B6010E947A05A1960FB6F894DEBF65
:100BD0000FBECDBFCF91DF911F910F91FF90EF908E
:100BE000DF90CF90BF90AF909F908F907F905F905D
:100BF0004F900895DC012115310541F4ED91FC91F0
:100C00000190F081E02D642F099508950E949605CA
:100C10000895EF92FF920F931F939A017B0100E0DA
:100C200010E0B801A7010E94FA051F910F91FF90F3
:100C3000EF900895CF92DF92EF92FF920F931F9360
:100C4000CF93DF93EC016A017B012115310541F45B
:100C5000E881F9810190F081E02D642F09951FC092
:100C60002A303105D1F477FF17C0E881F98101906E
:100C7000F081E02D6DE209958C0144275527BA01DA
:100C80004C195D096E097F09CE012AE00E94960584
:100C90009801280F391F04C02AE00E9496059C0184
:100CA000C901DF91CF911F910F91FF90EF90DF90DD
:100CB000CF900895EF92FF920F931F937B019A01BB
:100CC0000027F7FC0095102FB801A7010E941A0613
:100CD0001F910F91FF90EF9008950E947A0508955B
:100CE0001F920F920FB60F9211242F933F938F9361
:100CF0009F93AF93BF938091E4019091E501A09100
:100D0000E601B091E7013091E8010196A11DB11D06
:100D1000232F2D5F2D3720F02D570196A11DB11DDA
:100D20002093E8018093E4019093E501A093E6010C
:100D3000B093E7018091E0019091E101A091E2017F
:100D4000B091E3010196A11DB11D8093E001909344
:100D5000E101A093E201B093E301BF91AF919F91B4
:100D60008F913F912F910F900FBE0F901F9018956C
:100D7000789484B5826084BD84B5816084BD85B576
:100D8000826085BD85B5816085BDEEE6F0E080813D
:100D900081608083E1E8F0E010828081826080835E
:100DA000808181608083E0E8F0E0808181608083E1
:100DB000E1EBF0E0808184608083E0EBF0E0808113
:100DC00081608083EAE7F0E08081846080838081B5
:100DD000826080838081816080838081806880835D
:100DE0001092C1000895629FD001739FF001829F0D
:100DF000E00DF11D649FE00DF11D929FF00D839FAA
:100E0000F00D749FF00D659FF00D9927729FB00D46
:100E1000E11DF91F639FB00DE11DF91FBD01CF0159
:100E200011240895A1E21A2EAA1BBB1BFD010DC0BF
:100E3000AA1FBB1FEE1FFF1FA217B307E407F5078A
:100E400020F0A21BB30BE40BF50B661F771F881F66
:100E5000991F1A9469F760957095809590959B01FC
:100E6000AC01BD01CF010895EE0FFF1F0590F49175
:080E7000E02D0994F894FFCF76
:100E78002000202020202000030005000600090093
:100E880002000E000F001000110001000100000018
:0E0E9800008B0430052104520432047B040058
:00000001FF
