:100000000C9462000C948A000C948A000C948A0070
:100010000C948A000C948A000C948A000C948A0038
:100020000C948A000C948A000C948A000C948A0028
:100030000C948A000C948A000C948A000C948A0018
:100040000C9406050C948A000C94BD020C940B03CE
:100050000C948A000C948A000C948A000C948A00F8
:100060000C948A000C948A000000000024002700F1
:100070002A0000000000250028002B0000000000DE
:1000800023002600290004040404040404040202DA
:100090000202020203030303030301020408102007
:1000A0004080010204081020010204081020000012
:1000B0000007000201000003040600000000000029
:1000C0000000770411241FBECFEFD8E0DEBFCDBF04
:1000D00011E0A0E0B1E0EAEAFDE002C005900D9277
:1000E000A032B107D9F711E0A0E2B1E001C01D9242
:1000F000AA3DB107E1F710E0C4ECD0E004C02297BC
:10010000FE010E94CF06C23CD107C9F70E94CD0470
:100110000C94D3060C9400008091000160E070E024
:100120000E9476018091020160E070E00E947601F9
:100130008091040160E070E00E94760180910601E8
:1001400060E070E00E94760108950F931F939C0178
:100150008B0180910201B9010E947601809100011A
:1001600060E070E00E94760180910601B8010E9473
:1001700076018091040160E070E00E9476011F9199
:100180000F9108950F931F93809108010E946902B7
:100190009C018130910561F48091200190912101B1
:1001A000892B31F48091220191E0892780932201EB
:1001B000309321012093200180910A010E94540173
:1001C00008E210E0809FB001819F700D909F700D3C
:1001D0001124882777FD8095982F0E94BC0520E088
:1001E00030E040E85AE30E94480620E030E04FE764
:1001F00053E40E9448060E9489057093240160938D
:10020000230180910C010E945401809FB001819FC5
:10021000700D909F700D1124882777FD8095982F81
:100220000E94BC0520E030E040E85AE30E94480606
:1002300020E030E04FE753E40E9448060E94890521
:100240009B01AC01709326016093250180912201EE
:10025000882341F08091230190912401B9010E94EB
:10026000A50002C00E948C001F910F9108958FEA93
:1002700091E040E855E260E070E00E944603809122
:10028000000161E00E94D6018091020161E00E94BC
:10029000D6018091040161E00E94D601809106019F
:1002A00061E00E94D6010895982F8E3008F09E508C
:1002B000977080910E018295880F880F807C892B22
:1002C00080937C0080917A00806480937A00809192
:1002D0007A0086FDFCCF2091780040917900942F20
:1002E00080E030E0282B392BC90108951F93CF936C
:1002F000DF93182FEB0161E00E94D601209709F4EB
:100300004AC0CF3FD10509F449C0E12FF0E0E255E2
:10031000FF4F84918330C1F0843028F4813051F054
:100320008230B1F50CC0863019F1873049F1843044
:1003300079F514C084B5806884BDC7BD33C084B569
:10034000806284BDC8BD2EC080918000806880938B
:100350008000D0938900C093880024C080918000E1
:10036000806280938000D0938B00C0938A001AC073
:100370008091B00080688093B000C093B30012C039
:100380008091B00080628093B000C093B4000AC036
:10039000C038D1051CF4812F60E002C0812F61E0DC
:1003A0000E941502DF91CF911F910895CF93DF93A3
:1003B000482F50E0CA0186569F4FFC0134914A579E
:1003C0005F4FFA018491882369F190E0880F991FAB
:1003D000FC01E859FF4FA591B491FC01EE58FF4F85
:1003E000C591D491662351F42FB7F8948C91932F33
:1003F000909589238C93888189230BC0623061F4A6
:100400002FB7F8948C91932F909589238C938881A2
:10041000832B88832FBF06C09FB7F8948C91832BC2
:100420008C939FBFDF91CF910895482F50E0CA0170
:1004300082559F4FFC012491CA0186569F4FFC01B3
:1004400094914A575F4FFA013491332309F440C025
:10045000222351F1233071F0243028F42130A1F00F
:10046000223011F514C02630B1F02730C1F024300D
:10047000D9F404C0809180008F7703C08091800000
:100480008F7D8093800010C084B58F7702C084B5C3
:100490008F7D84BD09C08091B0008F7703C08091AB
:1004A000B0008F7D8093B000E32FF0E0EE0FFF1FD0
:1004B000EE58FF4FA591B4912FB7F894662321F41D
:1004C0008C919095892302C08C91892B8C932FBF9E
:1004D0000895682F70E0CB0182559F4FFC01249155
:1004E000CB0186569F4FFC0144916A577F4FFB0119
:1004F0009491992319F420E030E03CC0222351F17B
:10050000233071F0243028F42130A1F0223011F58D
:1005100014C02630B1F02730C1F02430D9F404C023
:10052000809180008F7703C0809180008F7D8093C1
:10053000800010C084B58F7702C084B58F7D84BDE4
:1005400009C08091B0008F7703C08091B0008F7D8B
:100550008093B000892F90E0880F991F84589F4F97
:10056000FC01A591B4918C9120E030E0842311F03E
:1005700021E030E0C901089508951F920F920FB64F
:100580000F9211242F933F934F938F939F93EF9349
:10059000FF938091C00082FD1DC04091C600209154
:1005A0006701309168012F5F3F4F2F73307080914A
:1005B000690190916A012817390771F0E09167018C
:1005C000F0916801E95DFE4F40833093680120930C
:1005D000670102C08091C600FF91EF919F918F91BA
:1005E0004F913F912F910F900FBE0F901F90189534
:1005F000E091BB01F091BC01E05CFF4F81919191D2
:1006000020813181821B930B8F739070892B11F0A5
:100610000E94BC0208951F920F920FB60F921124F0
:100620002F933F938F939F93EF93FF932091AB0171
:100630003091AC018091AD019091AE01281739073E
:1006400031F48091C1008F7D8093C10014C0E0918E
:10065000AD01F091AE01E559FE4F20818091AD01D1
:100660009091AE0101968F7390709093AE0180933C
:10067000AD012093C600FF91EF919F918F913F9123
:100680002F910F900FBE0F901F901895AF92BF92B1
:10069000DF92EF92FF920F931F93CF93DF93EC01C2
:1006A0007A018B01DD24403081EE580780E0680735
:1006B00080E0780711F0DD24D39491E0A92EB12CCD
:1006C000EC89FD89DD2069F0C50108A002C0880F12
:1006D000991F0A94E2F7808360E079E08DE390E06F
:1006E00005C0108260E874E88EE190E0A8019701EF
:1006F0000E94AB06215030404040504056954795EF
:100700003795279580E12030380720F0DD2011F063
:10071000DD24D6CFE889F9893083EA89FB892083F3
:1007200019A2EE89FF89408121E030E0C9010C8CDB
:1007300002C0880F991F0A94E2F7482B4083EE8984
:10074000FF894081C9010D8C02C0880F991F0A944E
:10075000E2F7482B4083EE89FF894081C9010E8C66
:1007600002C0880F991F0A94E2F7482B4083EE8954
:10077000FF8980810F8C02C0220F331F0A94E2F799
:10078000209528232083DF91CF911F910F91FF9017
:10079000EF90DF90BF90AF900895DC011C96ED9133
:1007A000FC911D97E05CFF4F2191319180819181F7
:1007B000281B390B2F733070C9010895DC011C967A
:1007C000ED91FC911D97E05CFF4F20813181E05459
:1007D000F040DF01AE5BBF4F8D919C9111972817C0
:1007E000390719F42FEF3FEF07C08D919C91E80F67
:1007F000F91F8081282F30E0C9010895DC011C9683
:10080000ED91FC911D97E05CFF4F20813181E05418
:10081000F040DF01AE5BBF4F8D919C91119728177F
:10082000390719F42FEF3FEF10C08D919C9111976C
:10083000E80FF91F20818D919C91119701968F737C
:10084000907011969C938E9330E0C9010895DC015D
:1008500091968C919197882339F05496ED91FC9163
:100860005597808186FFF9CF91961C920895CF937A
:10087000DF93EC01EE85FF85E05CFF4F2081318145
:10088000E054F0402F5F3F4F2F733070DF01AE5BBD
:10089000BF4F8D919C91119728173907D1F3E05CD8
:1008A000FF4F80819181E054F040E80FF91F608391
:1008B000EE85FF85E05CFF4F31832083EE89FF8961
:1008C000208181E090E00F8C02C0880F991F0A946C
:1008D000E2F7282B208381E089A3EC89FD898081C0
:1008E0008064808381E090E0DF91CF910895109241
:1008F000B2011092B10188EE93E0A0E0B0E08093E5
:10090000B3019093B401A093B501B093B60183E114
:1009100091E09093B0018093AF0187E291E09093D2
:10092000BC018093BB018BE691E09093BE01809364
:10093000BD0185EC90E09093C0018093BF0184ECF1
:1009400090E09093C2018093C10180EC90E090937D
:10095000C4018093C30181EC90E09093C601809321
:10096000C50182EC90E09093C8018093C70186ECAA
:1009700090E09093CA018093C90184E08093CB01F9
:1009800083E08093CC0187E08093CD0185E0809364
:10099000CE0181E08093CF010895CF93DF930E9431
:1009A0004E050E943701C8EFD2E00E94C200209796
:1009B000E1F30E94F802F9CFCF92DF92EF92FF921B
:1009C0000F931F93CF93DF937C016B018A01C0E0EB
:1009D000D0E00FC0D6016D916D01D701ED91FC9172
:1009E0000190F081E02DC7010995C80FD91F015072
:1009F00010400115110571F7CE01DF91CF911F91C4
:100A00000F91FF90EF90DF90CF9008951F920F927B
:100A10000FB60F9211242F933F938F939F93AF9311
:100A2000BF938091D5019091D601A091D701B0914B
:100A3000D8013091D9010196A11DB11D232F2D5F41
:100A40002D3720F02D570196A11DB11D2093D901FE
:100A50008093D5019093D601A093D701B093D8018C
:100A60008091D1019091D201A091D301B091D40194
:100A70000196A11DB11D8093D1019093D201A09345
:100A8000D301B093D401BF91AF919F918F913F91CA
:100A90002F910F900FBE0F901F901895789484B5EA
:100AA000826084BD84B5816084BD85B5826085BD6A
:100AB00085B5816085BDEEE6F0E080818160808350
:100AC000E1E8F0E010828081826080838081816033
:100AD0008083E0E8F0E0808181608083E1EBF0E0FA
:100AE000808184608083E0EBF0E08081816080839E
:100AF000EAE7F0E080818460808380818260808387
:100B00008081816080838081806880831092C100B1
:100B1000089504D06894B111B5C0089598D088F0B4
:100B20009F5790F0B92F9927B751A0F0D1F0660FD9
:100B3000771F881F991F1AF0BA95C9F712C0B130F4
:100B400081F09FD0B1E008959CC0672F782F88274F
:100B5000B85F39F0B93FCCF3869577956795B39533
:100B6000D9F73EF490958095709561957F4F8F4FA2
:100B70009F4F0895E89409C097FB3EF490958095A7
:100B8000709561957F4F8F4F9F4F9923A9F0F92F53
:100B900096E9BB279395F695879577956795B795D1
:100BA000F111F8CFFAF4BB0F11F460FF1BC06F5FB7
:100BB0007F4F8F4F9F4F16C0882311F096E911C0C9
:100BC000772321F09EE8872F762F05C0662371F0EA
:100BD00096E8862F70E060E02AF09A95660F771FFE
:100BE000881FDAF7880F9695879597F9089597F9F2
:100BF0009F6780E870E060E008959FEF80EC0895C3
:100C000000240A94161617061806090608950024EB
:100C10000A9412161306140605060895092E039465
:100C2000000C11F4882352F0BB0F40F4BF2B11F4D9
:100C300060FF04C06F5F7F4F8F4F9F4F089557FD38
:100C40009058440F551F59F05F3F71F04795880F3A
:100C500097FB991F61F09F3F79F0879508951216D1
:100C600013061406551FF2CF4695F1DF08C016167D
:100C700017061806991FF1CF86957105610508942E
:100C80000895E894BB2766277727CB0197F9089545
:100C90000BD0C4CFB5DF28F0BADF18F0952309F0E8
:100CA000A6CFABCF1124EECFCADFA0F3959FD1F32F
:100CB000950F50E0551F629FF001729FBB27F00D0A
:100CC000B11D639FAA27F00DB11DAA1F649F66275F
:100CD000B00DA11D661F829F2227B00DA11D621FAE
:100CE000739FB00DA11D621F839FA00D611D221F68
:100CF000749F3327A00D611D231F849F600D211D4C
:100D0000822F762F6A2F11249F5750408AF0E1F0EE
:100D100088234AF0EE0FFF1FBB1F661F771F881F37
:100D200091505040A9F79E3F510570F060CFAACF77
:100D30005F3FECF3983EDCF3869577956795B79522
:100D4000F795E7959F5FC1F7FE2B880F911D96954C
:100D5000879597F90895A1E21A2EAA1BBB1BFD01E6
:100D60000DC0AA1FBB1FEE1FFF1FA217B307E4078A
:100D7000F50720F0A21BB30BE40BF50B661F771FE2
:100D8000881F991F1A9469F76095709580959095C2
:100D90009B01AC01BD01CF010895EE0FFF1F05902F
:0A0DA000F491E02D0994F894FFCFC0
:100DAA0003000500060009000200110010000100FE
:100DBA000000003704DC04CD03FE03DE0327040031
:00000001FF
